:0A0000000C944B000C9400000C94CB
:10000A0000000C9400000C9400000C9400000C9466
:10001A0000000C9400000C9400000C9400000C9456
:10002A0000000C9478000C9400000C9400000C94CE
:10003A0000000C9400000C9400000C9400000C9436
:10004A0000000C9400000C940000FEFDFBF7010078
:10005A00020003000400050006000700080009006A
:10006A003F065B4F666D7D077F67777C395E7971E6
:10007A0001000400600254001100640258001000DC
:10008A007A026A0001009A027A000000F894EE27C8
:10009A00ECBBF1E0FBBFEBBFE5BF8DE0A2E0BB2705
:1000AA00ED938A95E9F780E098E0A0E6ED93019751
:1000BA00E9F7ECE7F0E085919591009761F0A59159
:1000CA00B59105901590BF01F00105900D92019729
:1000DA00E1F7FB01F0CFEFE5EDBFE8E0EEBFC0E6E8
:1000EA00D2E00C948D016A937A938A939A93AA9395
:1000FA00BA93EA93FA93EFB7EA93E9EAE2BFE09197
:10010A009A02E095EBBBE0919202F0919302E256DB
:10011A00FD4FE081F0E0E658FD4FE081E8BBE09159
:10012A009A02F0919B0260919C0270919D020E943A
:10013A00E5010FD1A2E9B2E00E945302EF5FFF4F3F
:10014A006F4F7F4F0E945802A0919202B091930282
:10015A008091940290919502A430E0E0BE07E0E01D
:10016A008E07E0E09E0771F4E0E0E0939202E093EC
:10017A009302E0939402E0939502E1E0F0E060E0FC
:10018A0070E0E7D0E991EFBFF991E991B991A991AE
:10019A0099918991799169911895BA93AA93E8816D
:1001AA00F9810E94EA01DED0E093A102E7D0E09350
:1001BA00A002E4D0E0939F02E1D0E0939E0222964F
:1001CA0008952697EFEFE883E983EA83EB83E0E07B
:1001DA00EC83ED83EC83ED83AC81BD81149754F5F8
:1001EA00EC81FD81E05AFD4FE081E2BBA5E0B0E081
:1001FA000E94D201989906C0989BFECFE0E0EA835C
:10020A00EB8318C0999907C0999BFECFE1E0F0E013
:10021A00EA83FB830FC09A9907C09A9BFECFE2E05C
:10022A00F0E0EA83FB8306C0EC81FD813196EC8322
:10023A00FD83D2CFAA81BB81AF3FEFEFBE0709F49E
:10024A0065C0EC81FD81A3E0B0E00E941702AA819B
:10025A00BB81EA0FFB1FE883F983E0919602F091D4
:10026A0097026091980270919902AAE0B0E080E04A
:10027A0090E00E94F7017F936F93FF93EF93E881D9
:10028A00F981A4E6B2E0EE0FFF1FAE0FBF1F0E9476
:10029A004F02AF91BF918F919F910E94EA010E94F4
:1002AA00DC01E0939602F0939702609398027093B0
:1002BA009902A881B9811997F9F4A0919602B0918F
:1002CA0097028091980290919902EAE0F0E060E04A
:1002DA0070E00E941C02E0938E02F0938F026093FA
:1002EA00900270939102E0E0E0939602E093970205
:1002FA00E0939802E0939902E0918E02F0918F02C6
:10030A00609190027091910226960895269659CF8F
:10031A00EFEFE1BBE5BBE0E0E4BBEFEFEABBE7BB35
:10032A00E3E0E3BFE9EAE2BFE0E0ECBFE1E0E9BF16
:10033A00789447DFE093A202F093A3026093A402A9
:10034A007093A502A091A202B091A30226DFF1CF79
:10035A00FFCFE0939A02F0939B0260939C02709302
:10036A009D020895E0938A02F0938B0260938C02B7
:10037A0070938D02E0918A02EF700895A0918A022B
:10038A00B0918B0280918C0290918D02E0E1F0E0B5
:10039A0060E070E00E941C02E5CF109639F080ED13
:1003AA0097E00197F1F7A8951197C9F70895EA0F11
:1003BA00FB1F681F791F0895F195E195F040089594
:1003CA00EE0FFF1F661F771F08956F2F660F660BCC
:1003DA00762F0895FA9FF02DEB9FF00DEA9FE02DFE
:1003EA00F10D08957A9F702D6B9F700DF89F700D17
:1003FA00E99F700D6A9F602D710DFB9F600D711D45
:10040A00E89F600D711D8827FA9FF02D610D781FF6
:10041A00EB9FF00D611D781FEA9FE02DF10D681F1B
:10042A00781F089529D0D6DF0EF4C6DF08953F93CA
:10043A004F935F93002411244427552730E2AA0FD3
:10044A00BB1F881F991F001C111C441F551F0E1A21
:10045A001F0A460B570B28F40E0E1F1E461F571F66
:10046A0001C0A1603A9559F7FD01BC01D001CA014A
:10047A005F914F913F910895E894F7FF02C09CDF86
:10048A006894B7FF06C0A095B095119600F803943A
:10049A0000FA0895ED91FC9111970895ED91FD915F
:1004AA006D917D9108957E936E93FE93EE930895D8
:00000001FF
